:100000006D28FF3FFF3FFF3FFF00030E8301A2006B
:100010000408A1000A08A3008A010B08F1000030BF
:10002000F1180130F1007108013A031D6228A001A6
:100030002008093C031C622807140630FC00FF302E
:10004000FB00FF30FA00FC0B26282D28FB0B29288B
:100050002C28FA0B2928262823281A30FB00FF30E9
:10006000FA00FB0B34283728FA0B342831284230A9
:10007000FA00FA0B3928000007100630FC00FF30A8
:10008000FB00FF30FA00FC0B46284D28FB0B4928EB
:100090004C28FA0B4928462843281A30FB00FF3029
:1000A000FA00FB0B54285728FA0B542851284230E9
:1000B000FA00FA0B592800002008093A03196228AF
:1000C000A00A18288B108B1723088A0021088400A7
:1000D000220E8300FF0E7F0E0900FF3003138316EC
:1000E000860087018312870190308B00762877285D
:02400E00FB3F76
:00000001FF
