:100000007228FF3FFF3FFF3F031383122108013A8D
:10001000031D0D280630A2006F282108023A031D97
:1000200014285B30A2006F282108033A031D1B2807
:100030004F30A2006F282108043A031D22286630A1
:10004000A2006F282108053A031D29286D30A2005F
:100050006F282108063A031D30287D30A2006F2842
:100060002108073A031D37280730A2006F2821080E
:10007000083A031D3E287F30A2006F282108093A64
:10008000031D45286F30A2006F2821080A3A031D7E
:100090004C287730A2006F2821080B3A031D532803
:1000A0007C30A2006F2821080C3A031D5A285830D2
:1000B000A2006F2821080D3A031D61285E30A200BE
:1000C0006F2821080E3A031D68287930A2006F2896
:1000D00021080F3A031D6F287130A2006F282208F3
:1000E000F0000800A62001308312A0000508F100EE
:1000F0000030F1180130F1007108003A031DA42806
:100100002008A1000420700887000B30FC00FF309D
:10011000FB00FF30FA00FC0B8E289528FB0B912882
:100120009428FA0B91288E288B283330FB00FF305F
:10013000FA00FB0B9C289F28FA0B9C2899288830F2
:10014000FA00FA0BA128A00A7628A528FF3003138D
:100150008316850087013F3083128700063083169F
:100160009F000800FF3FFF3FFF3FFF3FFF3FFF3F74
:02400E00FB3F76
:00000001FF
