:100000000428FF3FFF3FFF3FA5240130D40001300B
:10001000D5004D30B7006530B8007330B900753089
:10002000BA007230BB006530BC002030BD0020300B
:10003000BE003A30BF00C0013730D6007C25023008
:10004000D4000130D5005430B7006530B8006E30B0
:10005000B9007330BA006930BB006F30BC006E303D
:10006000BD002030BE003A30BF00C0013730D6009E
:100070007C25C101BB257008AB007108AC0070087D
:10008000C1007108C2002D30C30022250130D40008
:100090000A30D5002D30D6007C252B08F0002C0826
:1000A000F100F201F301F430F4000130F500F60143
:1000B000F7012E26FF30F4000330F500F601F701BA
:1000C0000B247008B3007108B4007208B5007308FF
:1000D000B6000230C1000B30C2006430F400F501FC
:1000E000F601F7010B243030F400F501F601F701B9
:1000F0007408F00775080318750FF10776080318E0
:10010000760FF20777080318770FF3077008C3001C
:10011000FC250230C1000C30C2002C30C300FC258D
:100120000230C1000D30C2006430F400F501F60168
:10013000F7013308F0003408F1003508F200360802
:10014000F3000B247808F0007908F1007A08F20037
:100150007B08F3000A30F400F501F601F7010B24E7
:100160003030F400F501F601F7017408F007750866
:100170000318750FF10776080318760FF207770852
:100180000318770FF3077008C300FC250230C10085
:100190000E30C2000A30F400F501F601F701330811
:1001A000F0003408F1003508F2003608F3000B24A3
:1001B0007808F0007908F1007A08F2007B08F30073
:1001C0003030F400F501F601F7017408F007750806
:1001D0000318750FF10776080318760FF2077708F2
:1001E0000318770FF3077008C300FC250230FC00EA
:1001F000FF30FB00FF30FA00FC0BFF280629FB0B49
:1002000002290529FA0B0229FF28FC280630FB00E9
:10021000FF30FA00FB0B0D291029FA0B0D290A29D2
:100220000A30FA00FA0B12290000392816299726FD
:10023000972697265908F0000130F400700803193A
:100240002529F40D7410FF3F1F297408A5005A08D2
:10025000F0000130F300700803193229F30D731018
:10026000FF3F2C297308A6005B08F0000130F20064
:10027000700803193F29F20D7210FF3F39297208E7
:10028000A7005C08F0000130F100700803194C2948
:10029000F10D7110FF3F46297108A8005E08F000BB
:1002A0000130A300700803195929A30D2310FF3F43
:1002B00053295F08F0000130AA007008031964296F
:1002C000AA0D2A10FF3F5E296008F0000130A2004D
:1002D000700803196F29A20D2210FF3F69295808E1
:1002E000A4005D08A1005808840073087404F0009D
:1002F0007208F0047108F004F00970088005841792
:1003000026082504F0002708F0042808F004F00966
:10031000700880058413210884002A082304F00053
:100320002208F004F0097008800584172A082304C5
:10033000F0002208F004F0097008800584132408F6
:10034000840027080004F0002808700480002108B9
:100350008400220880042209F00070088005972696
:10036000220880042209F0007008800597262208E0
:1003700080042209F0007008800597262408840074
:10038000270880042809F0007008800521088400EF
:10039000220880042209F0007008800597262208B0
:1003A00080042209F10071088005240884002709CF
:1003B000F0007008800525088004210884002208C8
:1003C0008004710880059726240884002509F00020
:1003D0007008800528088004210884002208800411
:1003E0002209F10071088005240884002809F00022
:1003F00070088005210884002208800471088005A7
:100400009726220880042209F0007008800524083D
:1004100084002808800421088400220880047008D1
:1004200080059726240884002809F00070088005BC
:1004300021088400220880042209F1007108800547
:100440002408840028080004F0002708F004260887
:10045000F00425087004800021088400220880042C
:100460007108800597260130A90008000313831244
:100470007408F8027508031C750FF9027608031C4E
:10048000760FFA027708031C770FFB02F30D073093
:10049000FC00730DF80DF90DFA0DFB0D7408731CBB
:1004A0005F2AF8027508031C750FF9027608031C11
:1004B000760FFA027708031C770FFB026C2AF80705
:1004C00075080318750FF90776080318760FFA07F1
:1004D00077080318770FFB07F30DFC0B492A720D01
:1004E000F80DF90DFA0DFB0D7408731C852AF8023E
:1004F0007508031C750FF9027608031C760FFA02C3
:100500007708031C770FFB02922AF8077508031877
:10051000750FF90776080318760FFA07770803189E
:10052000770FFB07F20D0730FC00720DF80DF90D87
:10053000FA0DFB0D7408721CAB2AF8027508031C37
:10054000750FF9027608031C760FFA027708031C70
:10055000770FFB02B82AF80775080318750FF9071B
:1005600076080318760FFA0777080318770FFB074A
:10057000F20DFC0B952A710DF80DF90DFA0DFB0D1E
:100580007408721CD12AF8027508031C750FF90251
:100590007608031C760FFA027708031C770FFB021C
:1005A000DE2AF80775080318750FF907760803188F
:1005B000760FFA0777080318770FFB07F10D07305E
:1005C000FC00710DF80DF90DFA0DFB0D7408711C8E
:1005D000F72AF8027508031C750FF9027608031C48
:1005E000760FFA027708031C770FFB02042BF8073B
:1005F00075080318750FF90776080318760FFA07C0
:1006000077080318770FFB07F10DFC0BE12A700D3B
:10061000F80DF90DFA0DFB0D7408711C1D2BF80275
:100620007508031C750FF9027608031C760FFA0291
:100630007708031C770FFB022A2BF80775080318AD
:10064000750FF90776080318760FFA07770803186D
:10065000770FFB07F00D0730FC00700DF80DF90D5A
:10066000FA0DFB0D7408701C432BF8027508031C6F
:10067000750FF9027608031C760FFA027708031C3F
:10068000770FFB02502BF80775080318750FF90751
:1006900076080318760FFA0777080318770FFB0719
:1006A000F00DFC0B2D2B7018632B7408F8077508E0
:1006B0000318750FF90776080318760FFA077708FD
:1006C0000318770FFB070800031383122108840027
:1006D0002209F000700880052309F00070088005E9
:1006E0002408840026082504F0002708F0042808C0
:1006F000F004F009700880050030E11B0130F100C2
:100700007108013A031D862B250880040030611B07
:100710000130F1007108013A031D902B2608800476
:100720000030E11A0130F1007108013A031D9A2BE3
:10073000270880040030611A0130F1007108013A85
:10074000031DA42B28088004210884002908013AED
:10075000031DAF2B2309F00070088005B12B23087F
:10076000800422088004CF262209F000700880054A
:100770002309F00070088005240884002608250459
:10078000F0002708F0042808F004F009700880053C
:100790000030E1190130F1007108013A031DD22B3C
:1007A00025088004003061190130F1007108013A18
:1007B000031DDC2B260880040030E1180130F10015
:1007C0007108013A031DE62B2708800401306105FA
:1007D000F1007108013A031DEF2B2808800421085D
:1007E00084002908013A031DFA2B2309F000700840
:1007F0008005FC2B2308800422088004CF262209D0
:10080000F000700880052908013A031D092C97267D
:100810000A2CC826080003138312FC01F71BFC0AEC
:10082000FD01FB01FA01F901F8017308720471047A
:10083000700403199F2C73087706A000A01BFD0904
:10084000F71F2D2CF409F509F609F709F40A031925
:10085000F50A0319F60A0319F70AF31F3A2CF009EF
:10086000F109F209F309F00A0319F10A0319F20A6E
:100870000319F30A73087704A000A01B5B2C36222F
:10088000FC1B782CFD1F9F2CF009F109F209F309DC
:10089000F00A0319F10A0319F20A0319F30AF80915
:1008A000F909FA09FB09F80A0319F90A0319FA0AFE
:1008B0000319FB0A9F2CF71F722CF31B6C2C730877
:1008C000FB007208FA007108F9007008F800F301E3
:1008D000F201F101F001422CF301F201F101F0010A
:1008E000F00A0034F309F209F109F009FC173F2C72
:1008F000F80A0319F90A0319FA0A0319FB0A74081A
:100900007802031D422C75087902031D422C7608DB
:100910007A02031D422C77087B02031D422CFB0147
:10092000FA01F901F801F00A0319F10A0319F20AB0
:100930000319F30AF31F422CA0012016FF34A00173
:100940007C1CA32CA926003F0800FF30031383164C
:10095000850087010E309F0007308312D400822665
:100960000130E10064230C30E10064230130D40045
:100970000330D5004130C1007430C2006530C3007F
:100980006C30C4006930C5006530C6007230C700E5
:100990002030C8004330C9006F30CA006E30CB0031
:1009A0006330CC006530CD007030CE007430CF00A5
:1009B0006930D0006F30D1006E30D200D3014130A9
:1009C000D6007C250230D4000630D5004930C10065
:1009D0006E30C2007430C3006530C4007230C50090
:1009E0006630C6006130C7006330C8006530C9009A
:1009F0007330CA00CB014130D6007C251530FC0095
:100A0000FF30FB00FF30FA00FC0B072D0E2DFB0B17
:100A10000A2D0D2DFA0B0A2D072D042D6630FB0033
:100A2000FF30FA00FB0B152D182DFA0B152D122D8A
:100A30001230FA00FA0B1A2D000000000130E1001C
:100A400064230800013003138312C4004208003CF1
:100A5000031D2C2D4108093C03182F2DC40A420800
:100A6000003C031D352D4108633C0318382DC40A92
:100A70004208033C031D3E2D4108E73C0318412D6D
:100A8000C40A4208273C031D472D41080F3C0318A8
:100A90004A2DC40A4308840020308000840A800064
:100AA000840A8000840A8000840A8000840A80010D
:100AB00084034408003C03187B2D0A30F400F50140
:100AC0004108F0004208F10065267808F000790836
:100AD000F10030307007800084030A30F400F50123
:100AE0004108F0004208F10065267008C100710855
:100AF000C200C403592D0800031383125408013A9D
:100B0000031D852D8030D4009C2D5408023A031D0E
:100B10008C2DC030D4009C2D5408033A031D932D16
:100B20009430D4009C2D5408043A031D9A2DD430DF
:100B3000D4009C2D8030D4005503F0005408F007F9
:100B40007008D4007008E1006423A901D701570898
:100B5000560784000008F2007208003A0319B82D05
:100B60005708560784000008D800B726D70AA72DD3
:100B70000130A9000800031383129F01C0309F04B5
:100B8000403083161F04F00070089F00803070040E
:100B90009F0083124108F000F00D7010F00D7010EE
:100BA000F00D701070089F041F14C0261F151F0839
:100BB000F200003072190130F2007208013A031D90
:100BC000E32D0000D72D1E08F200F3017208F30098
:100BD000F2017208C2007308C30083161E08720473
:100BE0008312C2007308C3000030C3041F10420800
:100BF000F0004308F1000800031383124108013A92
:100C0000031D052E8030C1001C2E4108023A031D31
:100C10000C2EC030C1001C2E4108033A031D132EB8
:100C20009430C1001C2E4108043A031D1A2ED43002
:100C3000C1001C2E8030C10042084107F000F003C3
:100C40007008C1000130A9007008E1006423A90107
:100C50004308E10064230130A90008000313831254
:100C60002230FC00F801F901FA01FB01FC03031931
:100C7000642E0310FB0CFA0CF90CF80CF30CF20CBC
:100C8000F10CF00C031C362EFC030319562E7408CD
:100C9000F80775080318750FF90776080318760F1B
:100CA000FA0777080318770FFB073A2E7408F8073E
:100CB00075080318750FF90776080318760FFA07F9
:100CC00077080318770FFB07080003138312F80156
:100CD000F9011030FC00710DF80DF90D7408F802DF
:100CE0007508031C750FF90203187D2E7408F807A8
:100CF00075080318750FF9070310F00DF10DFC0BC3
:100D00006B2E0800031383125408D8000730D90053
:100D10000630DA000530DB000430DC005408DD006A
:100D20000230DE00DF010330E000172108000F3041
:100D300003138312FB00FF30FA00FB0BA02EA32E3F
:100D4000FA0BA02E9D2E3E30FA00FA0BA52E0000C5
:100D5000080003138312FB09FA09F909F809F80AD4
:100D60000319F90A0319FA0A0319FB0A0800031305
:100D70008312A9015808E10064230130A90008008A
:100D80000E3003138312FA00FA0BC42E0000080081
:100D9000213003138312FA00FA0BCC2E0800000056
:100DA00000000800FF3FFF3FFF3FFF3FFF3FFF3FC7
:02400E00FB3F76
:00000001FF
