:10000000512AFF3FFF3FFF3F2826282628265A086F
:10001000F0000130F400700803191228F40D741078
:10002000FF3F0C287408A5005B08F0000130F300C6
:10003000700803191F28F30D7310FF3F1928730868
:10004000A6005C08F0000130F200700803192C28AB
:10005000F20D7210FF3F26287208A7005D08F0001D
:100060000130F100700803193928F10D7110FF3FBC
:1000700033287108A8005F08F0000130A300700861
:1000800003194628A30D2310FF3F40286008F00005
:100090000130AA00700803195128AA0D2A10FF3F49
:1000A0004B286108F0000130A200700803195C2899
:1000B000A20D2210FF3F56285908A4005E08A10097
:1000C0005908840073087404F0007208F004710881
:1000D000F004F00970088005841726082504F00054
:1000E0002708F0042808F004F0097008800584133C
:1000F000210884002A082304F0002208F004F009F3
:100100007008800584172A082304F0002208F004F0
:10011000F00970088005841324088400270800046F
:10012000F000280870048000210884002208800460
:100130002209F00070088005282622088004220980
:10014000F000700880052826220880042209F000AB
:1001500070088005282624088400270880042809C0
:10016000F00070088005210884002208800422091C
:10017000F000700880052826220880042209F1007A
:1001800071088005240884002709F00070088005A4
:100190002508800421088400220880047108800555
:1001A0002826240884002509F00070088005280806
:1001B000800421088400220880042209F1007108CB
:1001C0008005240884002809F000700880052108B3
:1001D00084002208800471088005282622088004F3
:1001E0002209F00070088005240884002808800493
:1001F000210884002208800470088005282624082D
:1002000084002809F0007008800521088400220875
:1002100080042209F1007108800524088400280860
:100220000004F0002708F0042608F00425087004F4
:100230008000210884002208800471088005282697
:100240000130A9000800031383127408F80275082E
:10025000031C750FF9027608031C760FFA02770863
:10026000031C770FFB02F30D0730FC00730DF80D34
:10027000F90DFA0DFB0D7408731C4C29F802750872
:10028000031C750FF9027608031C760FFA02770833
:10029000031C770FFB025929F80775080318750F1F
:1002A000F90776080318760FFA0777080318770F0F
:1002B000FB07F30DFC0B3629720DF80DF90DFA0D45
:1002C000FB0D7408731C7229F8027508031C750F66
:1002D000F9027608031C760FFA027708031C770FE1
:1002E000FB027F29F80775080318750FF9077608D0
:1002F0000318760FFA0777080318770FFB07F20D3C
:100300000730FC00720DF80DF90DFA0DFB0D7408A5
:10031000721C9829F8027508031C750FF9027608FB
:10032000031C760FFA027708031C770FFB02A5293E
:10033000F80775080318750FF90776080318760F84
:10034000FA0777080318770FFB07F20DFC0B8229D9
:10035000710DF80DF90DFA0DFB0D7408721CBE2914
:10036000F8027508031C750FF9027608031C760F56
:10037000FA027708031C770FFB02CB29F8077508F0
:100380000318750FF90776080318760FFA07770830
:100390000318770FFB07F10D0730FC00710DF80D06
:1003A000F90DFA0DFB0D7408711CE429F8027508AB
:1003B000031C750FF9027608031C760FFA02770802
:1003C000031C770FFB02F129F80775080318750F56
:1003D000F90776080318760FFA0777080318770FDE
:1003E000FB07F10DFC0BCE29700DF80DF90DFA0D80
:1003F000FB0D7408711C0A2AF8027508031C750F9E
:10040000F9027608031C760FFA027708031C770FAF
:10041000FB02172AF80775080318750FF907760805
:100420000318760FFA0777080318770FFB07F00D0C
:100430000730FC00700DF80DF90DFA0DFB0D740876
:10044000701C302AF8027508031C750FF902760833
:10045000031C760FFA027708031C770FFB023D2A74
:10046000F80775080318750FF90776080318760F53
:10047000FA0777080318770FFB07F00DFC0B1A2A11
:100480007018502A7408F80775080318750FF907D3
:1004900076080318760FFA0777080318770FFB071B
:1004A000080032240130D5000130D6004D30B700AD
:1004B0006530B8007330B9007530BA007230BB00D7
:1004C0006530BC002030BD002030BE003A30BF0097
:1004D000C0013730D7000D250230D5000130D600DD
:1004E0005430B7006530B8006D30B9007030BA00D4
:1004F0006530BB007230BC006130BD007430BE009E
:100500007530BF007230C0006530C1003A30C200A3
:10051000C3013730D7000D25C4014C257008AB004E
:100520007108AC007008C4007108C5002D30C60009
:10053000B3240130D5000A30D6002D30D7000D2568
:100540002B08F0002C08F100F201F3019630F400C2
:10055000F501F601F701BF25FF30F4000330F50087
:10056000F601F70198237008B3007108B40072080F
:10057000B5007308B6007008C4007108C5002D30BE
:10058000C600B3240230D5000D30D6002D30D70080
:100590000D250230C4001130C5004330C6008D2542
:1005A0000230FC00FF30FB00FF30FA00FC0BD92AC0
:1005B000E02AFB0BDC2ADF2AFA0BDC2AD92AD62A0E
:1005C0000630FB00FF30FA00FB0BE72AEA2AFA0BA1
:1005D000E72AE42A0A30FA00FA0BEC2A00008C2AF7
:1005E000F02A03138312210884002209F000700806
:1005F00080052309F000700880052408840026087F
:100600002504F0002708F0042808F004F009700819
:1006100080050030E21B0130F1007108013A031D32
:10062000132B250880040030621B0130F100710893
:10063000013A031D1D2B260880040030E21A013008
:10064000F1007108013A031D272B270880040030B0
:10065000621A0130F1007108013A031D312B28089C
:100660008004210884002908013A031D3C2B23093A
:10067000F000700880053E2B2308800422088004C7
:1006800060262209F000700880052309F000700838
:1006900080052408840026082504F0002708F004BB
:1006A0002808F004F009700880050030E2190130D4
:1006B000F1007108013A031D5F2B2508800400300A
:1006C00062190130F1007108013A031D692B2608F7
:1006D00080040030E2180130F1007108013A031D76
:1006E000732B2708800401306205F1007108013A7C
:1006F000031D7C2B28088004210884002908013A66
:10070000031D872B2309F00070088005892B23081F
:1007100080042208800460262209F0007008800509
:100720002908013A031D962B2826972B59260800E5
:1007300003138312FC01F71BFC0AFD01FB01FA0104
:10074000F901F801730872047104700403192C2C68
:1007500073087706A000A01BFD09F71FBA2BF40948
:10076000F509F609F709F40A0319F50A0319F60A57
:100770000319F70AF31FC72BF009F109F209F3096E
:10078000F00A0319F10A0319F20A0319F30A7308AC
:100790007704A000A01BE82B2321FC1B052CFD1FC8
:1007A0002C2CF009F109F209F309F00A0319F10AF6
:1007B0000319F20A0319F30AF809F909FA09FB09FE
:1007C000F80A0319F90A0319FA0A0319FB0A2C2C6F
:1007D000F71FFF2BF31BF92B7308FB007208FA00BD
:1007E0007108F9007008F800F301F201F101F0015D
:1007F000CF2BF301F201F101F001F00A0034F3090B
:10080000F209F109F009FC17CC2BF80A0319F90ACF
:100810000319FA0A0319FB0A74087802031DCF2B87
:1008200075087902031DCF2B76087A02031DCF2BA2
:1008300077087B02031DCF2BFB01FA01F901F801B8
:10084000F00A0319F10A0319F20A0319F30AF31F54
:10085000CF2BA0012016FF34A0017C1C302C3A269F
:10086000003F0800FF3003138316850087010E3018
:100870009F0007308312D50013260130E200F122D9
:100880000C30E200F1220130D5000330D6005030A8
:10089000C4007230C5006F30C6006A30C7006530D2
:1008A000C8007430C9002030CA004130CB00743019
:1008B000CC006530CD006C30CE006930CF006530A3
:1008C000D0007230D100D2014430D7000D25023063
:1008D000D5000430D6004D30C4006930C500633007
:1008E000C6007230C7006F30C8002D30C9004330D9
:1008F000CA006F30CB006E30CC007430CD00723047
:10090000CE006F30CF006C30D0006530D100753034
:10091000D2007230D300D4014430D7000D251530F9
:10092000FC00FF30FB00FF30FA00FC0B982C9F2CE2
:10093000FB0B9B2C9E2CFA0B9B2C982C952C663039
:10094000FB00FF30FA00FB0BA62CA92CFA0BA62CFF
:10095000A32C1230FA00FA0BAB2C0000000001307F
:10096000E200F1220800013003138312C70045089A
:10097000003C031DBD2C4408093C0318C02CC70AC9
:100980004508003C031DC62C4408633C0318C92CD1
:10099000C70A4508033C031DCF2C4408E73C031855
:1009A000D22CC70A4508273C031DD82C44080F3C0D
:1009B0000318DB2CC70A4608840020308000840A14
:1009C0008000840A8000840A8000840A8000840AEF
:1009D000800184034708003C03180C2D0A30F40002
:1009E000F5014408F0004508F100F6257808F0000C
:1009F0007908F10030307007800084030A30F40079
:100A0000F5014408F0004508F100F6257008C4001F
:100A10007108C500C703EA2C0800031383125508A8
:100A2000013A031D162D8030D5002D2D5508023AB0
:100A3000031D1D2DC030D5002D2D5508033A031D73
:100A4000242D9430D5002D2D5508043A031D2B2D4F
:100A5000D430D5002D2D8030D5005603F000550838
:100A6000F0077008D5007008E200F122A901D80152
:100A70005808570784000008F2007208003A03196A
:100A8000492D5808570784000008D9004826D80A7D
:100A9000382D0130A9000800031383129F01C030D4
:100AA0009F04403083161F04F00070089F008030C0
:100AB00070049F0083124408F000F00D7010F00DD8
:100AC0007010F00D701070089F041F1451261F1530
:100AD0001F08F200003072190130F2007208013A6A
:100AE000031D742D0000682D1E08F200F30172082A
:100AF000F300F2017208C5007308C60083161E08D1
:100B000072048312C5007308C6000030C6041F10AB
:100B10004508F0004608F10008000313831244085A
:100B2000013A031D962D8030C400AD2D4408023AD1
:100B3000031D9D2DC030C400AD2D4408033A031D94
:100B4000A42D9430C400AD2D4408043A031DAB2DF0
:100B5000D430C400AD2D8030C40045084407F000F7
:100B6000F0037008C4000130A9007008E200F1220F
:100B7000A9014608E200F1220130A9000800031390
:100B800083122230FC00F801F901FA01FB01FC0399
:100B90000319F52D0310FB0CFA0CF90CF80CF30CEF
:100BA000F20CF10CF00C031CC72DFC030319E72D0C
:100BB0007408F80775080318750FF9077608031805
:100BC000760FFA0777080318770FFB07CB2D740809
:100BD000F80775080318750FF90776080318760FDC
:100BE000FA0777080318770FFB070800031383122F
:100BF000F801F9011030FC00710DF80DF90D7408C1
:100C0000F8027508031C750FF90203180E2E7408FC
:100C1000F80775080318750FF9070310F00DF10DAB
:100C2000FC0BFC2D0800031383125508D900073074
:100C3000DA000630DB000530DC000430DD0055084A
:100C4000DE000230DF00E0010330E1000420080094
:100C50000F3003138312FB00FF30FA00FB0B312E21
:100C6000342EFA0B312E2E2E3E30FA00FA0B362E91
:100C70000000080003138312FB09FA09F909F809B7
:100C8000F80A0319F90A0319FA0A0319FB0A0800FA
:100C900003138312A9015908E200F1220130A900CF
:100CA00008000E3003138312FA00FA0B552E0000D1
:100CB0000800213003138312FA00FA0B5D2E08009E
:100CC000000000000800FF3FFF3FFF3FFF3FFF3FE6
:02400E00FB3F76
:00000001FF
