:100000002E28FF3FFF3FFF3FFF00030E8301A200AA
:100010000408A1000A08A3008A0120087D3A031DF4
:1000200020280708F1000130F1050130F1067108C0
:10003000003A031D1D2807101E280714A0012528BB
:10004000A00A063081008B160B1123088A002108B4
:100050008400220E8300FF0E7F0E090084300313FC
:100060008316810087018312870106308100A0304A
:100070008B00A0013A283B28FF3FFF3FFF3FFF3F97
:02400E00FB3F76
:00000001FF
