:100000000428FF3FFF3FFF3F68200708F100003052
:10001000F1180130F1007108013AFF30031D003082
:10002000F2000608F1000030F11B0130F100710808
:10003000003AFF30031D0030F0007208F00503198C
:1000400046280608F000F00D701070088600033096
:10005000FC00FF30FB00FF30FA00FC0B3028372893
:10006000FB0B33283628FA0B332830282D280B3089
:10007000FB00FF30FA00FB0B3E284128FA0B3E281C
:100080003B281830FA00FA0B432848280130860034
:100090000330FC00FF30FB00FF30FA00FC0B51285E
:1000A0005828FB0B54285728FA0B542851284E285F
:1000B0000B30FB00FF30FA00FB0B5F286228FA0BC5
:1000C0005F285C281830FA00FA0B64280528672896
:1000D000031383168601FF308700013083128600E8
:1000E0000800FF3FFF3FFF3FFF3FFF3FFF3FFF3F56
:02400E00FB3F76
:00000001FF
