:100000000428FF3FFF3FFF3F54200708F100003066
:10001000F1180130F1007108013A031D5128FF3039
:1000200086000630FC00FF30FB00FF30FA00FC0BBE
:100030001A282128FB0B1D282028FA0B1D281A2816
:1000400017281A30FB00FF30FA00FB0B28282B285A
:10005000FA0B282825284230FA00FA0B2D28000038
:1000600086010630FC00FF30FB00FF30FA00FC0B7D
:100070003A284128FB0B3D284028FA0B3D283A2816
:1000800037281A30FB00FF30FA00FB0B48284B28BA
:10009000FA0B482845284230FA00FA0B4D28000098
:1000A0005228860105285328031383168601FF3042
:1000B0008700831286010800FF3FFF3FFF3FFF3F9D
:02400E00FB3F76
:00000001FF
