:100000000428FF3FFF3FFF3F3F20063083169F003D
:1000100083120508F1000130F1057108013A031D52
:100020003D280608F1000130F1050130F1067108A4
:10003000003A031D1D2806101E2806140630FC0079
:10004000FF30FB00FF30FA00FC0B27282E28FB0BAB
:100050002A282D28FA0B2A28272824281A30FB00C2
:10006000FF30FA00FB0B35283828FA0B35283228E8
:100070004230FA00FA0B3A28000008283E28031301
:1000800083168601FF308500831286010800FF3F3A
:02400E00FB3F76
:00000001FF
