:10000000F82AFF3FFF3FFF3F0926092609265A0825
:10001000F0000130F400700803191228F40D741078
:10002000FF3F0C287408A5005B08F0000130F300C6
:10003000700803191F28F30D7310FF3F1928730868
:10004000A6005C08F0000130F200700803192C28AB
:10005000F20D7210FF3F26287208A7005D08F0001D
:100060000130F100700803193928F10D7110FF3FBC
:1000700033287108A8005F08F0000130A300700861
:1000800003194628A30D2310FF3F40286008F00005
:100090000130AA00700803195128AA0D2A10FF3F49
:1000A0004B286108F0000130A200700803195C2899
:1000B000A20D2210FF3F56285908A4005E08A10097
:1000C0005908840073087404F0007208F004710881
:1000D000F004F00970088005841726082504F00054
:1000E0002708F0042808F004F0097008800584133C
:1000F000210884002A082304F0002208F004F009F3
:100100007008800584172A082304F0002208F004F0
:10011000F00970088005841324088400270800046F
:10012000F000280870048000210884002208800460
:100130002209F0007008800509262208800422099F
:10014000F000700880050926220880042209F000CA
:1001500070088005092624088400270880042809DF
:10016000F00070088005210884002208800422091C
:10017000F000700880050926220880042209F10099
:1001800071088005240884002709F00070088005A4
:100190002508800421088400220880047108800555
:1001A0000926240884002509F00070088005280825
:1001B000800421088400220880042209F1007108CB
:1001C0008005240884002809F000700880052108B3
:1001D0008400220880047108800509262208800412
:1001E0002209F00070088005240884002808800493
:1001F000210884002208800470088005092624084C
:1002000084002809F0007008800521088400220875
:1002100080042209F1007108800524088400280860
:100220000004F0002708F0042608F00425087004F4
:1002300080002108840022088004710880050926B6
:100240000130A9000800031383127408F80275082E
:10025000031C750FF9027608031C760FFA02770863
:10026000031C770FFB02F30D0730FC00730DF80D34
:10027000F90DFA0DFB0D7408731C4C29F802750872
:10028000031C750FF9027608031C760FFA02770833
:10029000031C770FFB025929F80775080318750F1F
:1002A000F90776080318760FFA0777080318770F0F
:1002B000FB07F30DFC0B3629720DF80DF90DFA0D45
:1002C000FB0D7408731C7229F8027508031C750F66
:1002D000F9027608031C760FFA027708031C770FE1
:1002E000FB027F29F80775080318750FF9077608D0
:1002F0000318760FFA0777080318770FFB07F20D3C
:100300000730FC00720DF80DF90DFA0DFB0D7408A5
:10031000721C9829F8027508031C750FF9027608FB
:10032000031C760FFA027708031C770FFB02A5293E
:10033000F80775080318750FF90776080318760F84
:10034000FA0777080318770FFB07F20DFC0B8229D9
:10035000710DF80DF90DFA0DFB0D7408721CBE2914
:10036000F8027508031C750FF9027608031C760F56
:10037000FA027708031C770FFB02CB29F8077508F0
:100380000318750FF90776080318760FFA07770830
:100390000318770FFB07F10D0730FC00710DF80D06
:1003A000F90DFA0DFB0D7408711CE429F8027508AB
:1003B000031C750FF9027608031C760FFA02770802
:1003C000031C770FFB02F129F80775080318750F56
:1003D000F90776080318760FFA0777080318770FDE
:1003E000FB07F10DFC0BCE29700DF80DF90DFA0D80
:1003F000FB0D7408711C0A2AF8027508031C750F9E
:10040000F9027608031C760FFA027708031C770FAF
:10041000FB02172AF80775080318750FF907760805
:100420000318760FFA0777080318770FFB07F00D0C
:100430000730FC00700DF80DF90DFA0DFB0D740876
:10044000701C302AF8027508031C750FF902760833
:10045000031C760FFA027708031C770FFB023D2A74
:10046000F80775080318750FF90776080318760F53
:10047000FA0777080318770FFB07F00DFC0B1A2A11
:100480007018502A7408F80775080318750FF907D3
:1004900076080318760FFA0777080318770FFB071B
:1004A000080003138312210884002209F000700859
:1004B00080052309F00070088005240884002608C0
:1004C0002504F0002708F0042808F004F00970085B
:1004D00080050030E21B0130F1007108013A031D74
:1004E000732A250880040030621B0130F100710876
:1004F000013A031D7D2A260880040030E21A0130EB
:10050000F1007108013A031D872A27088004003092
:10051000621A0130F1007108013A031D912A28087E
:100520008004210884002908013A031D9C2A23091C
:10053000F000700880059E2A2308800422088004A9
:1005400041262209F000700880052309F000700898
:1005500080052408840026082504F0002708F004FC
:100560002808F004F009700880050030E219013015
:10057000F1007108013A031DBF2A250880040030EC
:1005800062190130F1007108013A031DC92A2608D9
:1005900080040030E2180130F1007108013A031DB7
:1005A000D32A2708800401306205F1007108013A5E
:1005B000031DDC2A28088004210884002908013A48
:1005C000031DE72A2309F00070088005E92A2308A3
:1005D00080042208800441262209F000700880056A
:1005E0002908013A031DF62A0926F72A3A260800A7
:1005F00013240130D5000130D6004D30B7006530EE
:10060000B8007330B9007530BA007230BB00653085
:10061000BC002030BD002030BE003A30BF00C00119
:100620003730D700EE240230D5000130D6005430E8
:10063000B7006530B8006D30B9007030BA00653071
:10064000BB007230BC006130BD007430BE0075303C
:10065000BF007230C0006530C1003A30C200C30133
:100660003730D700EE24C4012D257008AB00710887
:10067000AC007008C4007108C5002D30C600942479
:100680000130D5000A30D6002D30D700EE242B08DB
:10069000F0002C08F100F201F3019630F400F501AE
:1006A000F601F701A025FF30F4000330F500F60154
:1006B000F70179237008B3007108B4007208B5001F
:1006C0007308B6007008C4007108C5002D30C6005C
:1006D00094240230D5000D30D6002D30D700EE2402
:1006E0000230C4001330C5004330C6006E25332BE2
:1006F000782B03138312FC01F71BFC0AFD01FB019D
:10070000FA01F901F8017308720471047004031905
:100710000D2C73087706A000A01BFD09F71F9B2B6B
:10072000F409F509F609F709F40A0319F50A03199A
:10073000F60A0319F70AF31FA82BF009F109F209C9
:10074000F309F00A0319F10A0319F20A0319F30A6B
:1007500073087704A000A01BC92B2321FC1BE62BE8
:10076000FD1F0D2CF009F109F209F309F00A031934
:10077000F10A0319F20A0319F30AF809F909FA0947
:10078000FB09F80A0319F90A0319FA0A0319FB0A03
:100790000D2CF71FE02BF31BDA2B7308FB007208FC
:1007A000FA007108F9007008F800F301F201F10194
:1007B000F001B02BF301F201F101F001F00A003475
:1007C000F309F209F109F009FC17AD2BF80A031936
:1007D000F90A0319FA0A0319FB0A74087802031DBF
:1007E000B02B75087902031DB02B76087A02031D21
:1007F000B02B77087B02031DB02BFB01FA01F90136
:10080000F801F00A0319F10A0319F20A0319F30AAD
:10081000F31FB02BA0012016FF34A0017C1C112C6B
:100820001B26003F0800FF30031383168500870155
:100830000E309F0007308312D500F4250130E2000E
:1008400051220C30E20051220130D5000330D60095
:100850005030C4007230C5006F30C6006A30C70027
:100860006530C8007430C9002030CA004130CB0068
:100870007430CC006530CD006C30CE006930CF00D4
:100880006530D0007230D100D2014430D700EE2460
:100890000230D5000430D6004D30C4006930C500A8
:1008A0006330C6007230C7006F30C8002D30C900F9
:1008B0004330CA006F30CB006E30CC007430CD00B6
:1008C0007230CE006F30CF006C30D0006530D10078
:1008D0007530D2007230D300D4014430D700EE24FA
:1008E0001530FC00FF30FB00FF30FA00FC0B792CC8
:1008F000802CFB0B7C2C7F2CFA0B7C2C792C762CFF
:100900006630FB00FF30FA00FB0B872C8A2CFA0BB9
:10091000872C842C1230FA00FA0B8C2C000000007B
:100920000130E20051220800013003138312C70096
:100930004508003C031D9E2C4408093C0318A12CCB
:10094000C70A4508003C031DA72C4408633C031854
:10095000AA2CC70A4508033C031DB02C4408E73CF9
:100960000318B32CC70A4508273C031DB92C4408BB
:100970000F3C0318BC2CC70A4608840020308000B6
:10098000840A8000840A8000840A8000840A80002F
:10099000840A800184034708003C0318ED2C0A30C8
:1009A000F400F5014408F0004508F100D725780867
:1009B000F0007908F10030307007800084030A30BD
:1009C000F400F5014408F0004508F100D72570084F
:1009D000C4007108C500C703CB2C080003138312A1
:1009E0005508013A031DF72C8030D5000E2D55080F
:1009F000023A031DFE2CC030D5000E2D5508033AD7
:100A0000031D052D9430D5000E2D5508043A031D05
:100A10000C2DD430D5000E2D8030D5005603F000BB
:100A20005508F0077008D5007008E2005122A901AE
:100A3000D8015808570784000008F2007208003AED
:100A400003192A2D5808570784000008D9002926C1
:100A5000D80A192D0130A9000800031383129F0141
:100A6000C0309F04403083161F04F00070089F00C0
:100A7000803070049F0083124408F000F00D701065
:100A8000F00D7010F00D701070089F041F143226C6
:100A90001F151F08F200003072190130F2007208B1
:100AA000013A031D552D0000492D1E08F200F301E7
:100AB0007208F300F2017208C5007308C6008316BD
:100AC0001E0872048312C5007308C6000030C604F5
:100AD0001F104508F0004608F100080003138312B8
:100AE0004408013A031D772D8030C4008E2D440840
:100AF000023A031D7E2DC030C4008E2D4408033AF7
:100B0000031D852D9430C4008E2D4408043A031D26
:100B10008C2DD430C4008E2D8030C400450844078D
:100B2000F000F0037008C4000130A9007008E20072
:100B30005122A9014608E20051220130A900080013
:100B4000031383122230FC00F801F901FA01FB01C2
:100B5000FC030319D62D0310FB0CFA0CF90CF80C4E
:100B6000F30CF20CF10CF00C031CA82DFC03031980
:100B7000C82D7408F80775080318750FF90776086B
:100B80000318760FFA0777080318770FFB07AC2DC9
:100B90007408F80775080318750FF9077608031825
:100BA000760FFA0777080318770FFB07080003137F
:100BB0008312F801F9011030FC00710DF80DF90DE8
:100BC0007408F8027508031C750FF9020318EF2D5D
:100BD0007408F80775080318750FF9070310F00D6E
:100BE000F10DFC0BDD2D0800031383125508D9000D
:100BF0000730DA000630DB000530DC000430DD00B1
:100C00005508DE000230DF00E0010330E10004207F
:100C100008000F3003138312FB00FF30FA00FB0BB8
:100C2000122E152EFA0B122E0F2E3E30FA00FA0B52
:100C3000172E0000080003138312FB09FA09F909B3
:100C4000F809F80A0319F90A0319FA0A0319FB0A41
:100C5000080003138312A9015908E2005122013050
:100C6000A90008000E3003138312FA00FA0B362E87
:100C700000000800213003138312FA00FA0B3E2E05
:100C80000800000000000800FF3FFF3FFF3FFF3F5C
:02400E00FB3F76
:00000001FF
