:10000000CA29FF3FFF3FFF3F9C229C229C224208BF
:10001000F0000130F400700803191228F40D741078
:10002000FF3F0C287408A4004308F0000130F300DF
:10003000700803191F28F30D7310FF3F1928730868
:10004000A5004408F0000130F200700803192C28C4
:10005000F20D7210FF3F26287208A6004508F00036
:100060000130F100700803193928F10D7110FF3FBC
:1000700033287108A7004708F0000130A20070087B
:1000800003194628A20D2210FF3F40284808F0001F
:100090000130A900700803195128A90D2910FF3F4C
:1000A0004B284908F0000130A100700803195C28B2
:1000B000A10D2110FF3F56284108A3004608A000CB
:1000C0004108840073087404F0007208F004710899
:1000D000F004F00970088005841725082404F00056
:1000E0002608F0042708F004F0097008800584133E
:1000F0002008840029082204F0002108F004F009F7
:1001000070088005841729082204F0002108F004F3
:10011000F009700880058413230884002608000471
:10012000F000270870048000200884002108800463
:100130002109F000700880059C2221088004210913
:10014000F000700880059C22210880042109F0003D
:10015000700880059C222308840026088004270953
:10016000F00070088005200884002108800421091F
:10017000F000700880059C22210880042109F1000C
:1001800071088005230884002609F00070088005A6
:100190002408800420088400210880047108800558
:1001A0009C22230884002409F00070088005270899
:1001B000800420088400210880042109F1007108CE
:1001C0008005230884002709F000700880052008B6
:1001D000840021088004710880059C222108800485
:1001E0002109F00070088005230884002708800496
:1001F0002008840021088004700880059C222308C0
:1002000084002709F0007008800520088400210878
:1002100080042109F1007108800523088400270863
:100220000004F0002608F0042508F00424087004F7
:1002300080002008840021088004710880059C2229
:100240000130A8000800031383122008840021094C
:10025000F000700880052209F0007008800523086E
:10026000840025082404F0002608F0042708F00480
:10027000F009700880050030CA1B0130F1007108D8
:10028000013A031D45292408800400304A1B01302F
:10029000F1007108013A031D4F2925088004003040
:1002A000CA1A0130F1007108013A031D59292608C4
:1002B000800400304A1A0130F1007108013A031D30
:1002C000632927088004200884002808013A031DB8
:1002D0006E292209F0007008800570292208800428
:1002E00021088004C6222109F00070088005220937
:1002F000F000700880052308840025082404F0001D
:100300002608F0042708F004F00970088005003082
:10031000CA190130F1007108013A031D912924081E
:10032000800400304A190130F1007108013A031DC0
:100330009B29250880040030CA180130F10071089B
:10034000013A031DA5292608800401304A05F10061
:100350007108013A031DAE29270880042008840093
:100360002808013A031DB9292209F0007008800508
:10037000BB292208800421088004C6222109F0003C
:10038000700880052808013A031DC8299C22C92944
:10039000BF220800B7220630BD0087220C30CA00F9
:1003A00023210130BD000330BE005330AA00453088
:1003B000AB004D30AC003230AD002030AE004930E3
:1003C000AF005330B0004530B1005430B20020309F
:1003D000B3004E30B4004130B5004230B600453075
:1003E000B7005530B8004C30B900BA012A30BF0010
:1003F00048220230BD000230BE005430AA00503006
:10040000AB003330AC002030AD004130AE00523094
:10041000AF004330B0004830B1002030B20045306A
:10042000B3005430B4002030B5005330B60059301A
:10043000B7005330B8005430B9002030BA00323021
:10044000BB00BC012A30BF0048226630FC00FF30F0
:10045000FB00FF30FA00FC0B2E2A352AFB0B312A59
:10046000342AFA0B312A2E2A2B2AFC30FB00FF30CB
:10047000FA00FB0B3C2A3F2AFA0B3C2A392A6A3045
:10048000FA00FA0B412A00000130CA002321472A52
:10049000031383123D08013A031D512A8030BD0029
:1004A000682A3D08023A031D582AC030BD00682A58
:1004B0003D08033A031D5F2A9430BD00682A3D08B9
:1004C000043A031D662AD430BD00682A8030BD007E
:1004D0003E03F0003D08F0077008BD007008CA0038
:1004E0002321A801C00140083F0784000008F20052
:1004F0007208003A0319842A40083F078400000864
:10050000C100AE22C00A732A0130A80008000313FC
:1005100083123D08C1000730C2000630C300053019
:10052000C4000430C5003D08C6000230C700C80141
:100530000330C900042008000F3003138312FB00AE
:10054000FF30FA00FB0BA52AA82AFA0BA52AA22A3B
:100550003E30FA00FA0BAA2A0000080003138312A7
:10056000A8014108CA0023210130A8000800FF307B
:100570000313831687008601831286010800213049
:1005800003138312FA00FA0BC32A080000000000CC
:100590000800FF3FFF3FFF3FFF3FFF3FFF3FFF3FA1
:02400E00FB3F76
:00000001FF
