:100000002329FF3FFF3FFF3F2B232B232B234808B0
:10001000F0000130F400700803191228F40D741078
:10002000FF3F0C287408A4004908F0000130F300D9
:10003000700803191F28F30D7310FF3F1928730868
:10004000A5004A08F0000130F200700803192C28BE
:10005000F20D7210FF3F26287208A6004B08F00030
:100060000130F100700803193928F10D7110FF3FBC
:1000700033287108A7004D08F0000130A200700875
:1000800003194628A20D2210FF3F40284E08F00019
:100090000130A900700803195128A90D2910FF3F4C
:1000A0004B284F08F0000130A100700803195C28AC
:1000B000A10D2110FF3F56284708A3004C08A000BF
:1000C0004708840073087404F0007208F004710893
:1000D000F004F00970088005841725082404F00056
:1000E0002608F0042708F004F0097008800584133E
:1000F0002008840029082204F0002108F004F009F7
:1001000070088005841729082204F0002108F004F3
:10011000F009700880058413230884002608000471
:10012000F000270870048000200884002108800463
:100130002109F000700880052B2321088004210983
:10014000F000700880052B23210880042109F000AD
:10015000700880052B2323088400260880042709C3
:10016000F00070088005200884002108800421091F
:10017000F000700880052B23210880042109F1007C
:1001800071088005230884002609F00070088005A6
:100190002408800420088400210880047108800558
:1001A0002B23230884002409F00070088005270809
:1001B000800420088400210880042109F1007108CE
:1001C0008005230884002709F000700880052008B6
:1001D000840021088004710880052B2321088004F5
:1001E0002109F00070088005230884002708800496
:1001F0002008840021088004700880052B23230830
:1002000084002709F0007008800520088400210878
:1002100080042109F1007108800523088400270863
:100220000004F0002608F0042508F00424087004F7
:1002300080002008840021088004710880052B2399
:100240000130A800080057230630C30016230C30E5
:10025000D000FE210130C3000330C4005330B00091
:100260004530B1004D30B2003230B3002030B40020
:100270004930B5005330B6004530B7005430B800AF
:100280002030B9004E30BA004130BB004230BC00D3
:100290004530BD005530BE004C30BF00C00130308D
:1002A000C500A5220230C3000230C4005430B000A3
:1002B0005030B1003330B2002030B3004130B400D0
:1002C0005230B5004330B6004830B7002030B80097
:1002D0004530B9005430BA002030BB005330BC0068
:1002E0005930BD005330BE005430BF002030C00034
:1002F0003230C100C2013030C500A5221530FC00EB
:10030000FF30FB00FF30FA00FC0B87298E29FB0B26
:100310008A298D29FA0B8A29872984296630FB00CE
:10032000FF30FA00FB0B95299829FA0B95299229A1
:100330001230FA00FA0B9A29000000000130D000B8
:10034000FE21AA010130C3000130C4004E30B000CC
:100350006230B1007230B2002030B3005630B400C9
:100360006F30B5006930B6007430B7007530B80032
:100370007230B9006530BA007330BB002030BC0069
:100380003A30BD00BE013030C500A5220708F1009B
:100390000130F1057108013A031DFC292A0AF00019
:1003A0007008AA007008C3002B30C400E422023099
:1003B000C3000130C4002B30C500A5220B30FC0067
:1003C000FF30FB00FF30FA00FC0BE729EE29FB0BA6
:1003D000EA29ED29FA0BEA29E729E4293330FB0061
:1003E000FF30FA00FB0BF529F829FA0BF529F22961
:1003F0008830FA00FA0BFA29C629FD290313831263
:10040000200884002109F000700880052209F0000E
:10041000700880052308840025082404F0002608BD
:10042000F0042708F004F009700880050030D01BA4
:100430000130F1007108013A031D202A24088004CC
:100440000030501B0130F1007108013A031D2A2AC7
:10045000250880040030D01A0130F1007108013AFB
:10046000031D342A260880040030501A0130F100A0
:100470007108013A031D3E2A2708800420088400E1
:100480002808013A031D492A2209F0007008800556
:100490004B2A220880042108800466232109F000E9
:1004A000700880052209F000700880052308840088
:1004B00025082404F0002608F0042708F004F009B9
:1004C000700880050030D0190130F1007108013A40
:1004D000031D6C2A24088004003050190130F100FB
:1004E0007108013A031D762A250880040030D018CF
:1004F0000130F1007108013A031D802A26088004AA
:1005000001305005F1007108013A031D892A2708BE
:100510008004200884002808013A031D942A220937
:10052000F00070088005962A2208800421088004C3
:1005300066232109F000700880052808013A031D90
:10054000A32A2B23A42A5F23080003138312430842
:10055000013A031DAE2A8030C300C52A4308023A7F
:10056000031DB52AC030C300C52A4308033A031D42
:10057000BC2A9430C300C52A4308043A031DC32A89
:10058000D430C300C52A8030C3004403F0004308C0
:10059000F0077008C3007008D000FE21A801C60152
:1005A0004608450784000008F2007208003A031963
:1005B000E12A4608450784000008C7004E23C60A02
:1005C000D02A0130A8000800013003138312C500AF
:1005D0004308093C0318ED2AC50A4308633C031885
:1005E000F22AC50A4408840020308000840A800072
:1005F000840A8000840A800184034508003C0318B3
:10060000152B0A30F4004308F0003D237808F00071
:1006100030307007800084030A30F4004308F00093
:100620003D237008C300C503FD2A0800031383128D
:100630004308C7000730C8000630C9000530CA00AB
:100640000430CB004308CC000230CD00CE01033093
:10065000CF00042008000F3003138312FB00FF308B
:10066000FA00FB0B342B372BFA0B342B312B3E309B
:10067000FA00FA0B392B0000080003138312F8016B
:100680000830FC00700DF80D7408F80203184A2BAE
:10069000F8070310F00DFC0B422B08000313831224
:1006A000A8014708D000FE210130A8000800FF3053
:1006B0000313831687008601831286010800213008
:1006C00003138312FA00FA0B632B080000000000EA
:1006D0000800FF3FFF3FFF3FFF3FFF3FFF3FFF3F60
:02400E00FB3F76
:00000001FF
