:100000002329FF3FFF3FFF3FF222F222F222420864
:10001000F0000130F400700803191228F40D741078
:10002000FF3F0C287408A4004308F0000130F300DF
:10003000700803191F28F30D7310FF3F1928730868
:10004000A5004408F0000130F200700803192C28C4
:10005000F20D7210FF3F26287208A6004508F00036
:100060000130F100700803193928F10D7110FF3FBC
:1000700033287108A7004708F0000130A20070087B
:1000800003194628A20D2210FF3F40284808F0001F
:100090000130A900700803195128A90D2910FF3F4C
:1000A0004B284908F0000130A100700803195C28B2
:1000B000A10D2110FF3F56284108A3004608A000CB
:1000C0004108840073087404F0007208F004710899
:1000D000F004F00970088005841725082404F00056
:1000E0002608F0042708F004F0097008800584133E
:1000F0002008840029082204F0002108F004F009F7
:1001000070088005841729082204F0002108F004F3
:10011000F009700880058413230884002608000471
:10012000F000270870048000200884002108800463
:100130002109F00070088005F222210880042109BD
:10014000F00070088005F222210880042109F000E7
:1001500070088005F22223088400260880042709FD
:10016000F00070088005200884002108800421091F
:10017000F00070088005F222210880042109F100B6
:1001800071088005230884002609F00070088005A6
:100190002408800420088400210880047108800558
:1001A000F222230884002409F00070088005270843
:1001B000800420088400210880042109F1007108CE
:1001C0008005230884002709F000700880052008B6
:1001D00084002108800471088005F222210880042F
:1001E0002109F00070088005230884002708800496
:1001F000200884002108800470088005F22223086A
:1002000084002709F0007008800520088400210878
:1002100080042109F1007108800523088400270863
:100220000004F0002608F0042508F00424087004F7
:100230008000200884002108800471088005F222D3
:100240000130A8000800063003138312BD00DD2230
:100250000C30CA00F7210130BD000330BE0053301E
:10026000AA004530AB004D30AC003230AD0020303C
:10027000AE004930AF005330B0004530B1005430CB
:10028000B2002030B3004E30B4004130B5004230EF
:10029000B6004530B7005530B8004C30B900BA014F
:1002A0002A30BF009E220230BD000230BE00543012
:1002B000AA005030AB003330AC002030AD004130EC
:1002C000AE005230AF004330B0004830B1002030B3
:1002D000B2004530B3005430B4002030B500533084
:1002E000B6005930B7005330B8005430B900203050
:1002F000BA003230BB00BC012A30BF009E2215304C
:10030000FC00FF30FB00FF30FA00FC0B88298F292E
:10031000FB0B8B298E29FA0B8B29882985296630BE
:10032000FB00FF30FA00FB0B96299929FA0B96295E
:1003300093291230FA00FA0B9B29000000000130CB
:10034000CA00F7210708F1000030F1180130F10070
:100350007108003A031DD1290130BD000430BE00F0
:100360004130AA004330AB004330AC004530AD0013
:100370005330AE002030AF004930B0004E30B100F5
:100380005430B2004530B3005230B4004430B500B0
:100390004930B6005430B700B8012A30BF009E2261
:1003A000F5290130BD000430BE004130AA004330C1
:1003B000AB004330AC004530AD005330AE002030D0
:1003C000AF004130B0005530B1005430B2004F3072
:1003D000B3005230B4004930B5005330B600453058
:1003E000B700B8012A30BF009E22A229F6290313C4
:1003F0008312200884002109F0007008800522097A
:10040000F000700880052308840025082404F0000B
:100410002608F0042708F004F00970088005003071
:10042000CA1B0130F1007108013A031D192A240882
:10043000800400304A1B0130F1007108013A031DAD
:10044000232A250880040030CA1A0130F1007108FF
:10045000013A031D2D2A2608800400304A1A013073
:10046000F1007108013A031D372A2708800420088B
:1004700084002808013A031D422A2209F00070086E
:100480008005442A220880042108800414232109BD
:10049000F000700880052209F0007008800523082C
:1004A000840025082404F0002608F0042708F0043E
:1004B000F009700880050030CA190130F100710898
:1004C000013A031D652A2408800400304A190130CE
:1004D000F1007108013A031D6F2A250880040030DD
:1004E000CA180130F1007108013A031D792A260863
:1004F000800401304A05F1007108013A031D822A87
:1005000027088004200884002808013A031D8D2A4A
:100510002209F000700880058F2A22088004210833
:10052000800414232109F000700880052808013A8E
:10053000031D9C2AF2229D2A0D2308000313831217
:100540003D08013A031DA72A8030BD00BE2A3D08A0
:10055000023A031DAE2AC030BD00BE2A3D08033A50
:10056000031DB52A9430BD00BE2A3D08043A031D80
:10057000BC2AD430BD00BE2A8030BD003E03F0004E
:100580003D08F0077008BD007008CA00F721A801F7
:10059000C00140083F0784000008F2007208003ADA
:1005A0000319DA2A40083F0784000008C100042329
:1005B000C00AC92A0130A8000800031383123D08AD
:1005C000C1000730C2000630C3000530C40004304B
:1005D000C5003D08C6000230C700C8010330C9008D
:1005E000042008000F3003138312FB00FF30FA00D1
:1005F000FB0BFB2AFE2AFA0BFB2AF82A3E30FA00F4
:10060000FA0B002B0000080003138312A801410815
:10061000CA00F7210130A80008002130031383121B
:10062000FA00FA0B112B0800000000000800FF3F41
:02400E00FB3F76
:00000001FF
