:10000000CA29FF3FFF3FFF3FF122F122F1224408BE
:10001000F0000130F400700803191228F40D741078
:10002000FF3F0C287408A4004508F0000130F300DD
:10003000700803191F28F30D7310FF3F1928730868
:10004000A5004608F0000130F200700803192C28C2
:10005000F20D7210FF3F26287208A6004708F00034
:100060000130F100700803193928F10D7110FF3FBC
:1000700033287108A7004908F0000130A200700879
:1000800003194628A20D2210FF3F40284A08F0001D
:100090000130A900700803195128A90D2910FF3F4C
:1000A0004B284B08F0000130A100700803195C28B0
:1000B000A10D2110FF3F56284308A3004808A000C7
:1000C0004308840073087404F0007208F004710897
:1000D000F004F00970088005841725082404F00056
:1000E0002608F0042708F004F0097008800584133E
:1000F0002008840029082204F0002108F004F009F7
:1001000070088005841729082204F0002108F004F3
:10011000F009700880058413230884002608000471
:10012000F000270870048000200884002108800463
:100130002109F00070088005F122210880042109BE
:10014000F00070088005F122210880042109F000E8
:1001500070088005F12223088400260880042709FE
:10016000F00070088005200884002108800421091F
:10017000F00070088005F122210880042109F100B7
:1001800071088005230884002609F00070088005A6
:100190002408800420088400210880047108800558
:1001A000F122230884002409F00070088005270844
:1001B000800420088400210880042109F1007108CE
:1001C0008005230884002709F000700880052008B6
:1001D00084002108800471088005F1222108800430
:1001E0002109F00070088005230884002708800496
:1001F000200884002108800470088005F12223086B
:1002000084002709F0007008800520088400210878
:1002100080042109F1007108800523088400270863
:100220000004F0002608F0042508F00424087004F7
:100230008000200884002108800471088005F122D4
:100240000130A8000800031383122008840021094C
:10025000F000700880052209F0007008800523086E
:10026000840025082404F0002608F0042708F00480
:10027000F009700880050030CC1B0130F1007108D6
:10028000013A031D45292408800400304C1B01302D
:10029000F1007108013A031D4F2925088004003040
:1002A000CC1A0130F1007108013A031D59292608C2
:1002B000800400304C1A0130F1007108013A031D2E
:1002C000632927088004200884002808013A031DB8
:1002D0006E292209F0007008800570292208800428
:1002E0002108800428232109F000700880052209D4
:1002F000F000700880052308840025082404F0001D
:100300002608F0042708F004F00970088005003082
:10031000CC190130F1007108013A031D912924081C
:10032000800400304C190130F1007108013A031DBE
:100330009B29250880040030CC180130F100710899
:10034000013A031DA5292608800401304C05F1005F
:100350007108013A031DAE29270880042008840093
:100360002808013A031DB9292209F0007008800508
:10037000BB29220880042108800428232109F000D9
:10038000700880052808013A031DC829F122C929EF
:100390001C230800063003138312BF0023230C2301
:1003A0000830BF00DC220C30CC0023210130BF001C
:1003B0000130C0005430AC006130AD007030AE0090
:1003C0006530AF007230B0002030B1007530B2003F
:1003D0006E30B3006530B4002030B5007430B60024
:1003E0006F30B7007530B8006330B9006830BA00BC
:1003F0006530BB002030BC003A30BD00BE012C305F
:10040000C1003B22AB012B08003A031D0B2AAC2292
:100410007008AB00032A2B080A3C031C122A2F3059
:10042000AB07142A3630AB070230BF000130C000E2
:100430002B08C1007A220330FC00FF30FB00FF30A4
:10044000FA00FC0B242A2B2AFB0B272A2A2AFA0B58
:10045000272A242A212A0B30FB00FF30FA00FB0B4D
:10046000322A352AFA0B322A2F2A1830FA00FA0BD0
:10047000372A022A3A2A031383123F08013A031D3E
:10048000442A8030BF005B2A3F08023A031D4B2AF2
:10049000C030BF005B2A3F08033A031D522A943044
:1004A000BF005B2A3F08043A031D592AD430BF001D
:1004B0005B2A8030BF004003F0003F08F00770085F
:1004C000BF007008CC002321A801C20142084107E7
:1004D00084000008F2007208003A0319772A4208E3
:1004E000410784000008C3000323C20A662A0130C2
:1004F000A8000800031383123F08013A031D832A52
:100500008030BF009A2A3F08023A031D8A2AC03071
:10051000BF009A2A3F08033A031D912A9430BF0076
:100520009A2A3F08043A031D982AD430BF009A2A19
:100530008030BF0040083F07F000F0037008BF00A4
:100540000130A8007008CC002321A8014108CC008C
:1005500023210130A800080003138312BF011030CB
:10056000C1004108003C0318D82A2A088400F03052
:10057000800084174109F000FF30700580001423CB
:1005800084130F300005F1007108C0007108003AB3
:100590000319D32A4008003A0319D22AC00CC01309
:1005A000BF0ACA2AD92AC10D41100430BF07B12A97
:1005B000BF013F08F0000800031383123F08C30087
:1005C0000730C4000630C5000530C6000430C7003F
:1005D0003F08C8000230C900CA010330CB00042024
:1005E00008000F3003138312FB00FF30FA00FB0BEF
:1005F000FA2AFD2AFA0BFA2AF72A3E30FA00FA0BF9
:10060000FF2A0000080003138312A8014308CC004E
:1006100023210130A8000800FF3003138316860051
:100620008801831288010800063003138312FA0040
:10063000FA0B182B00000800213003138312FA0074
:10064000FA0B202B0800031383123F08AA000800AE
:10065000000000000800FF3FFF3FFF3FFF3FFF3F5C
:02400E00FB3F76
:00000001FF
