:100000002329FF3FFF3FFF3FC623C623C6234408E3
:10001000F0000130F400700803191228F40D741078
:10002000FF3F0C287408A4004508F0000130F300DD
:10003000700803191F28F30D7310FF3F1928730868
:10004000A5004608F0000130F200700803192C28C2
:10005000F20D7210FF3F26287208A6004708F00034
:100060000130F100700803193928F10D7110FF3FBC
:1000700033287108A7004908F0000130A200700879
:1000800003194628A20D2210FF3F40284A08F0001D
:100090000130A900700803195128A90D2910FF3F4C
:1000A0004B284B08F0000130A100700803195C28B0
:1000B000A10D2110FF3F56284308A3004808A000C7
:1000C0004308840073087404F0007208F004710897
:1000D000F004F00970088005841725082404F00056
:1000E0002608F0042708F004F0097008800584133E
:1000F0002008840029082204F0002108F004F009F7
:1001000070088005841729082204F0002108F004F3
:10011000F009700880058413230884002608000471
:10012000F000270870048000200884002108800463
:100130002109F00070088005C623210880042109E8
:10014000F00070088005C623210880042109F00012
:1001500070088005C6232308840026088004270928
:10016000F00070088005200884002108800421091F
:10017000F00070088005C623210880042109F100E1
:1001800071088005230884002609F00070088005A6
:100190002408800420088400210880047108800558
:1001A000C623230884002409F0007008800527086E
:1001B000800420088400210880042109F1007108CE
:1001C0008005230884002709F000700880052008B6
:1001D00084002108800471088005C623210880045A
:1001E0002109F00070088005230884002708800496
:1001F000200884002108800470088005C623230895
:1002000084002709F0007008800520088400210878
:1002100080042109F1007108800523088400270863
:100220000004F0002608F0042508F00424087004F7
:100230008000200884002108800471088005C623FE
:100240000130A8000800063003138312BE00F82313
:10025000E9230830BE00B1230C30CC00D32101309B
:10026000CC00D3210130BE000130BF004530B000CA
:100270006E30B1007430B2007230B3006530B4003B
:100280007230B5002030B6006330B7006F30B80070
:100290006430B9006530BA002030BB003A30BC0091
:1002A000BD013030C000CA222B30BE000130BF007B
:1002B0000F30C0007A222B30BE003130B000323017
:1002C000B1003330B2003430B300B4013030BF007D
:1002D000092300307106031D6F2900307006031DCD
:1002E00090290230BE000530BF004330B0006F30AF
:1002F000B1006430B2006530B3002030B400563035
:10030000B5006130B6006C30B7006930B8006430B9
:10031000B9006530BA00BB013030C000CA22B22932
:100320000230BE000330BF004330B0006F30B10078
:100330006430B2006530B3002030B4004930B500FD
:100340006E30B6007630B7006130B8006C30B9005E
:100350006930BA006430BB006530BC00BD0130308C
:10036000C000CA220630FC00FF30FB00FF30FA005C
:10037000FC0BBB29C229FB0BBE29C129FA0BBE29E4
:10038000BB29B8291A30FB00FF30FA00FB0BC92942
:10039000CC29FA0BC929C6294230FA00FA0BCE291A
:1003A00000002F29D2290313831220088400210979
:1003B000F000700880052209F0007008800523080D
:1003C000840025082404F0002608F0042708F0041F
:1003D000F009700880050030CC1B0130F100710875
:1003E000013A031DF5292408800400304C1B01301C
:1003F000F1007108013A031DFF292508800400302F
:10040000CC1A0130F1007108013A031D092A2608AF
:10041000800400304C1A0130F1007108013A031DCC
:10042000132A27088004200884002808013A031DA5
:100430001E2A2209F00070088005202A2208800464
:1004400021088004FD232109F0007008800522099D
:10045000F000700880052308840025082404F000BB
:100460002608F0042708F004F00970088005003021
:10047000CC190130F1007108013A031D412A24080A
:10048000800400304C190130F1007108013A031D5D
:100490004B2A250880040030CC180130F100710887
:1004A000013A031D552A2608800401304C05F1004D
:1004B0007108013A031D5E2A270880042008840081
:1004C0002808013A031D692A2209F00070088005F6
:1004D0006B2A2208800421088004FD232109F000F2
:1004E000700880052808013A031D782AC623792A56
:1004F000F123080003138312C1014108033C031CCC
:10050000C92AC2014208003A031D8A2A81237008C1
:10051000C200822A42080A3C0318912A3630C207D8
:10052000932A2F30C20741083E07F000700884006C
:1005300070088400420880003F08C300410840075B
:10054000C4004208C5004F230430FC00FF30FB000C
:10055000FF30FA00FC0BAD2AB42AFB0BB02AB32AF9
:10056000FA0BB02AAD2AAA2A1030FB00FF30FA009D
:10057000FB0BBB2ABE2AFA0BBB2AB82A2630FA008C
:10058000FA0BC02A00004108033A0319C92AC10A1C
:100590007D2A0800031383123E08013A031DD32A63
:1005A0008030BE00EA2A3E08023A031DDA2AC03033
:1005B000BE00EA2A3E08033A031DE12A9430BE0039
:1005C000EA2A3E08043A031DE82AD430BE00EA2A8B
:1005D0008030BE003F03F0003E08F0077008BE0008
:1005E0007008CC00D321A801C10141084007840054
:1005F0000008F2007208003A0319062B4108400770
:1006000084000008C300D823C10AF52A0130A800DD
:10061000080003138312C2013E0884000008C000D2
:10062000C1013F0884000008F0000030C1007008DC
:10063000C002031CC10300304106031D212B003002
:100640004006FF30031D0030F30042083E078400DF
:100650000008F2007208003AFF3003190030F00081
:100660007308F00503194A2B420AF0007008C20013
:1006700070083E0784000008C000C10170083F07F1
:1006800084000008F0000030C1007008C002031CA4
:10069000C1031B2B4008F0004108F10008000313C0
:1006A00083124308013A031D582B8030C3006F2B7F
:1006B0004308023A031D5F2BC030C3006F2B430871
:1006C000033A031D662B9430C3006F2B4308043A92
:1006D000031D6D2BD430C3006F2B8030C300440842
:1006E0004307F000F0037008C3000130A800700851
:1006F000CC00D321A8014508CC00D3210130A800AB
:10070000080003138312C3011030C5004508003CE4
:100710000318AD2B2A088400F030800084174509A7
:10072000F000FF3070058000E12384130F300005D6
:10073000F1007108C4007108003A0319A82B44089D
:10074000003A0319A72BC40CC413C30A9F2BAE2B6A
:10075000C50D45100430C307862BC3014308F000C4
:100760000800031383123E08C3000730C40006309C
:10077000C5000530C6000430C7003E08C80002307E
:10078000C900CA010330CB00042008000F30031356
:100790008312FB00FF30FA00FB0BCF2BD22BFA0B9E
:1007A000CF2BCC2B3E30FA00FA0BD42B00000800E4
:1007B00003138312A8014308CC00D3210130A80001
:1007C0000800063003138312FA00FA0BE52B000031
:1007D0000800FF3003138316860088018312880106
:1007E0000800213003138312FA00FA0BF52B0800DE
:1007F000031383123E08AA0008000000000008004E
:02400E00FB3F76
:00000001FF
