:100000004C28FF3FFF3FFF3F031383161208F00009
:10001000F1017008013FF40000300318013F71073F
:10002000F50083122008F000F10178200630F2007C
:100030007008F8007108F900720803192428F90CF7
:10004000F80CF913FF3F1D287808F0007908F1003B
:10005000F00DF10D7010F00DF10D7010F00DF10DAF
:100060007010F00DF10D701030307005F600710851
:10007000F7000030F7057808F0007908F100F10C7E
:10008000F00CF113F10CF00CF113700895000F3027
:100090009705760897040800031383168601FF303E
:1000A000870083121210921012146330831692008C
:1000B000AB207F30A0000420A3200608F100003010
:1000C000F1180130F1007108003A031D6A28193057
:1000D000A00004200608F100003071190130F10081
:1000E0007108003A031D7628A00104205D287728B6
:1000F00003138312FB01FA01F9018030F800F10CBF
:10010000F00C031C8C287408F90775080318750F88
:10011000FA070318FB0A0310F01F94287408FA0763
:1001200075080318750FFB07FB0CFA0CF90CF80C9B
:10013000031C7F287B08F3007A08F2007908F1009D
:100140007808F000080003138316071183121215B4
:100150000C309704080003138312950117129712AD
:100160000800FF3FFF3FFF3FFF3FFF3FFF3FFF3FD5
:02400E00FB3F76
:00000001FF
